:100000000C9434000C9449000C9449000C94490061
:100010000C9449000C9449000C9449000C9449003C
:100020000C9449000C9449000C9449000C9449002C
:100030000C9449000C9449000C9449000C9449001C
:100040000C9449000C9449000C9449000C9449000C
:100050000C9449000C9449000C9449000C944900FC
:100060000C9449000C94490011241FBECFEFD8E036
:10007000DEBFCDBF11E0A0E0B1E0E0EEF9E002C0EC
:1000800005900D92A432B107D9F70E944B000C9451
:10009000EE040C940000CF93DF9384B18A6284B99C
:1000A000229A80E895E20E941D01C0E0D1E00E9402
:1000B0009D018823E1F30E94A3018936C1F70E94C4
:1000C0009800CE010E945501F2CFEF92FF920F935C
:1000D0001F93CF93DF93142F052FF62EE72E299829
:1000E0000E940D018E2D0E940D018F2D0E940D0189
:1000F000802F0E940D01812F0E940D0185E90E9431
:100100000D01C0E0D0E004C02196C930D10529F02E
:100110000E941601182F8F3FB9F30E941601299AE9
:10012000812FDF91CF911F910F91FF90EF90089554
:100130000F931F93DF93CF93CDB7DEB764970FB6BE
:10014000F894DEBF0FBECDBF80E895E20E941D018E
:100150000E94050100E010E08FEF0E940D010F5F8B
:100160001F4F0A301105C1F73CC080E440E050E069
:10017000BA010E9465000150104029F482E191E02B
:100180000E94550137C0813081F700D000D000D0E7
:10019000EDB7FEB731968E010F5F1F4FADB7BEB7FB
:1001A00012961C930E9311978DE191E093838283B5
:1001B00081E090E0958384830E94E9018DB79EB72A
:1001C00006960FB6F8949EBF0FBE8DBFC8010E9461
:1001D000550182E291E00E94550181E00E944D01AB
:1001E00009C080E440E050E0BA010E94650009E0E7
:1001F00010E0C9CF64960FB6F894DEBF0FBECDBF36
:10020000CF91DF911F910F9108958CB583658CBDBF
:1002100008958CB580648CBD08958EBD8DB58EB566
:10022000089581E00DB407FE80E008958FEF8EBD44
:100230000DB407FEFDCF8EB508959C01442737FD10
:100240004095542F220F331F441F551F220F331F79
:10025000441F551F220F331F441F551F220F331FEA
:10026000441F551F60E074E284EF90E00E94A601F5
:1002700021503040832F992787FD9A958093C500A0
:100280002093C400E1ECF0E0808188618083E2EC9F
:10029000F0E080818E6080830895E0ECF0E0908152
:1002A00095FFFDCF8093C6000895EF92FF920F93C4
:1002B0001F93CF93DF93F82EE92E0F2D1E2DC0E054
:1002C000D0E006C0F80181918F010E944D01219676
:1002D000EF2DFE2DDF010D900020E9F71197AE1BE9
:1002E000BF0BCA17DB0770F3DF91CF911F910F91FE
:1002F000FF90EF9008950F931F93DF93CF93CDB7A7
:10030000DEB760970FB6F894DEBF0FBECDBF8E018B
:100310000F5F1F4FB8014AE050E00E94C801C801BA
:100320000E94550160960FB6F894DEBF0FBECDBF98
:10033000CF91DF911F910F9108959091C00081E0BE
:1003400097FF80E008958091C6000895A1E21A2EDB
:10035000AA1BBB1BFD010DC0AA1FBB1FEE1FFF1F69
:10036000A217B307E407F50720F0A21BB30BE40BB9
:10037000F50B661F771F881F991F1A9469F7609500
:100380007095809590959B01AC01BD01CF010895BA
:10039000FB019F01E8944230C4F04532B4F44A3086
:1003A00029F497FB1EF4909581959F4F642F772732
:1003B0000E94A304805D8A330CF0895D8193CB0198
:1003C0000097A1F716F45DE251931082C9010C94D5
:1003D0000904AEE0B0E0EFEEF1E00C94C5040D8945
:1003E0001E8986E08C831A8309838FEF9FE79E83A3
:1003F0008D839E01275E3F4FCE0101966F89788DD8
:10040000A9010E940C02EF81F885E00FF11F108214
:100410002E96E4E00C94E104ACE0B0E0E2E1F2E01E
:100420000C94B7046C011B018A01FC01178216822F
:10043000838181FFD1C12E010894411C511CF6011A
:100440009381F10193FD859193FF81911F01882391
:1004500009F4BEC1853239F493FD859193FF8191F2
:100460001F01853229F490E0B6010E941904E7CFFC
:10047000EE24FF2420E02032B0F48B3269F08C327D
:1004800028F4803251F0833271F40BC08D3239F090
:10049000803349F421602CC02260246029C0286088
:1004A00027C0206125C027FD2CC0382F30533A309B
:1004B00098F426FF08C08E2D880FE82EEE0CEE0C67
:1004C000E80EE30E15C08F2D880FF82EFF0CFF0CE1
:1004D000F80EF30E20620CC08E3221F426FD78C196
:1004E000206406C08C3611F4206802C0883649F4B6
:1004F000F10193FD859193FF81911F01882309F0FC
:10050000BACF982F9554933018F09052933028F426
:100510000C5F1F4FFFE3F9830DC0833631F0833743
:1005200071F0833509F060C022C0F80180818983B1
:100530000E5F1F4F420171E0A72EB12C16C062E082
:10054000662E712C600E711EF8018080918026FF4E
:1005500003C06E2D70E002C06FEF7FEFC4012C87E7
:100560000E94FE035C0183012C852F7717C052E0A7
:10057000652E712C600E711EF8018080918026FF1F
:1005800003C06E2D70E002C06FEF7FEFC4012C87B7
:100590000E94F3035C012C852068830123FD20C0A9
:1005A00008C080E290E0B6012C870E941904FA94FA
:1005B0002C858F2D90E0A816B90698F311C0F40190
:1005C00027FD859127FF81914F0190E0B6012C878F
:1005D0000E9419042C85F110FA940894A108B1081E
:1005E000A114B10461F7F1C0843611F0893649F5E0
:1005F00027FF08C0F80160817181828193810C5FBF
:100600001F4F09C0F80160817181882777FD8095AF
:10061000982F0E5F1F4F4FE6B42EB22297FF09C0EE
:1006200090958095709561957F4F8F4F9F4FF0E823
:10063000BF2AA2012AE030E00E944504782E7418F7
:1006400045C0853731F43FEEB32EB2222AE030E0C8
:1006500025C099EFB92EB2228F36C1F0803720F431
:10066000883509F0B5C00DC0803721F0883709F012
:10067000AFC002C020E1B22AB4FE0BC084E0B82AA9
:1006800008C0B4FE09C0E6E0BE2A06C028E030E09B
:1006900005C020E130E002C020E132E0B7FE08C032
:1006A000F80160817181828193810C5F1F4F07C0C7
:1006B000F8016081718180E090E00E5F1F4FA20120
:1006C0000E944504782E7418FFE7BF22B6FE0BC0C7
:1006D0002EEFB2227E1438F4B4FE07C0B2FC05C07F
:1006E0008FEEB82202C0A72C01C0AE2C8B2D90E05B
:1006F000B4FE0DC0FE01E70DF11D2081203319F479
:10070000E9EEBE2209C0A394B2FE06C004C08678FA
:100710009070009709F0A3948B2C9924B3FC14C01B
:10072000B0FE0FC0AF1428F4E72CEF0CEA18AF2C82
:1007300008C0E72C06C080E290E0B6010E941904D0
:10074000A394AF14C0F304C0AF1410F4FA1801C09E
:10075000FF2484FE0FC080E390E0B6010E941904DC
:1007600082FE1FC081FE03C088E590E010C088E7CC
:1007700090E00DC0C40186789070009791F081FCE4
:1007800002C080E201C08BE2B7FC8DE290E0B601CE
:100790000E94190406C080E390E0B6010E9419048B
:1007A000EA947E14C0F37A94F201E70DF11D808182
:1007B00090E0B6010E9419047720A9F706C080E2F4
:1007C00090E0B6010E941904FA94FF20C1F737CED9
:1007D000F6012681378102C02FEF3FEFC9012C9629
:1007E000E2E10C94D304FC010590615070400110CB
:1007F000D8F7809590958E0F9F1F0895FC0161504A
:10080000704001900110D8F7809590958E0F9F1F32
:100810000895DC01FC01672F71917723E1F732978E
:1008200004C07C916D9370836291AE17BF07C8F3CB
:1008300008950F931F93CF93DF938C01EB018B816E
:1008400081FF1BC082FF0DC02E813F818C819D8165
:100850002817390764F4E881F9810193F983E88363
:1008600006C0E885F985802F0995009731F48E81BF
:100870009F8101969F838E8302C00FEF1FEFC801F7
:10088000DF91CF911F910F910895FA01AA27283087
:1008900051F1203181F1E8946F936E7F6E5F7F4F4D
:1008A0008F4F9F4FAF4FB1E03ED0B4E03CD0670FC9
:1008B000781F891F9A1FA11D680F791F8A1F911D1C
:1008C000A11D6A0F711D811D911DA11D20D009F46C
:1008D00068943F912AE0269F11243019305D3193AE
:1008E000DEF6CF010895462F4770405D4193B3E097
:1008F0000FD0C9F7F6CF462F4F70405D4A3318F03E
:10090000495D31FD4052419302D0A9F7EACFB4E0EE
:10091000A6959795879577956795BA95C9F70097A6
:100920006105710508959B01AC010A2E0694579547
:10093000479537952795BA95C9F7620F731F841F9E
:10094000951FA01D0895AA1BBB1B51E107C0AA1F3C
:10095000BB1FA617B70710F0A61BB70B881F991F60
:100960005A95A9F780959095BC01CD0108952F92D5
:100970003F924F925F926F927F928F929F92AF922F
:10098000BF92CF92DF92EF92FF920F931F93CF937C
:10099000DF93CDB7DEB7CA1BDB0B0FB6F894DEBF13
:1009A0000FBECDBF09942A88398848885F846E8439
:1009B0007D848C849B84AA84B984C884DF80EE8083
:1009C000FD800C811B81AA81B981CE0FD11D0FB68C
:1009D000F894DEBF0FBECDBFED010895F894FFCFB0
:1009E000496E696C697A6174696F6E2043617264E3
:1009F0000A00427265616B696E69740A00253032C3
:040A0000580020007A
:00000001FF
